:020000040000FA
:2000000000500020850F00007D0F0000650F0000810F0000810F0000810F0000000000002C
:20002000000000000000000000000000810F0000810F000000000000810F0000810F000080
:20004000253D0000810F00003D360000810F0000BD2A0000413A0000810F0000810F000029
:20006000810F000075360000810F0000810F0000810F0000810F0000810F0000810F0000E5
:20008000810F0000810F0000810F0000810F0000810F0000810F0000810F0000810F0000E0
:2000A000810F0000810F0000810F0000810F0000810F0000810F0000810F0000810F0000C0
:2000C000810F0000810F0000294B1B689B0702D44FF000407047F0B5452183B0002002F00B
:2000E00075FB0DF10601022201200DF04BF938B901A802210DF070F94FF0004003B0F0BD03
:200100000DF10601022200200DF03CF90028EFD0BDF80640230A43EA0424A4B2200BADF8DA
:2001200004400EF09BFC0EF049F80646C4F30B000F460EF0A3FC0CA3D3E9002304460D467C
:20014000304639460EF000FD02460B46204629460EF0FAFC0EF0A8FF06490FF003F90FF05F
:20016000C7FA03B0F0BD00BF7B14AE47E17A843F580700200000C84208B51F4B1B68032B9C
:200180001BD1431E012B18D81C4A1D4B012812881B8815D018460EF061FC0022194B0EF0A0
:2001A000D3FC0022184B0EF0CFFC0EF07DFF17490FF0D8F80FF09CFA08BD4FF0004008BDDB
:2001C00010B20EF05BFC00220E4B0EF0BDFC08A3D3E900230EF0B8FC00220D4B0EF000FB27
:2001E0000EF062FF09490FF0BDF80FF081FA08BD0000000000A064407C070020BA2B00206F
:20020000BC2B00200000F03E000059400000C8420000444000000000F8B5614B1B68F3B102
:20022000604B002210F0380605461A609A8050D1420714D002F0C6FB5B4C206007E002F0D3
:20024000C1FB22686FF009039B1AC34203D501F0E9FD0028F3D0554B1B78DB0703D44FF06E
:2002600000463046F8BD4F4C6821012002F0AEFA2146062243200DF085F80746002861D01C
:2002800023786178A078E77822796370637921700021E070A77008466271237102F096FAD9
:2002A000042D5AD0022D5BD0012DDAD1B4F904000EF0E4FB38A3D3E900230EF06FFD0EF000
:2002C000F3FE3B490FF04EF80FF012FA06463046F8BD02F077FB344C206007E002F072FB38
:2002E00022686FF009039B1AC34203D501F09AFD0028F3D02D4B1B78D907B0D5294C682196
:20030000012002F063FA214606223B200DF03AF806460021084602F059FAB6B3277866786E
:20032000A078E17822796379202D67702670E070A1706271237116D0102D20D0082D21D01A
:2003400000268EE7204606210DF046F83946384602F03CFA4FF0004683E7B4F90000A7E7EB
:20036000B4F90200A4E7B4F9000001F085FC10490EF0F8FF0FF0BCF906463046F8BDB4F9FE
:200380000200F2E7B4F90400EFE7204606210DF023F864E7AFF300800000000000606040E9
:2003A000AC07002084070020082C0020D62B00200000C842000000002DE9F04F23F0004890
:2003C00058EA020993B03CD0714C21F00046A64283460D460CDD06F1404606F5801656EA32
:2003E0000B0038D183466B49584613B0BDE8F08F9A4696462BD0A045EDDC654CA04578D0A4
:20040000002D0F468146CDE9002376DB0024BEF1000F27D15E4B984500F08B805D4B984589
:2004200052D0BAF1804F00F0C9835B4B9A4519D1002D17DB4846394613B0BDE8F04F0EF0A4
:200440005DB8CB465846534913B0BDE8F08F0028C1D1B045D1DD514813B0BDE8F04F0EF0BA
:200460001DB90024484639460EF00CF9BBF1000F1CD0ED0F013D54EA050370D0484B98459B
:2004800040F3948003F10473984540F30D84454B9E4270DDBAF1000F70DD3BA3D3E9002388
:2004A000104619460EF050FB83469DE726B1394B25F040429A42DCD1BAF1000FC0F2B783D0
:2004C000002D08DB83468FE7BAF1000FC0F25E84CB46394688E706F1404606F5801656EA32
:2004E000040300F08384012CECD101F1004183467AE7BEF1000F83D06DE72B4B98452CDCF7
:20050000A3F15473984581DD4FEA2853A3F2FF33142B40F35384C3F134032EFA03F202FA7D
:2005200003F39E457FF472AF02F00102C2F102046DE706F1404303F5801353EA0B0300F00C
:200540003A83184B9E4240F36783BAF1000F15DBDDE900349B46214646E7022457E74A4671
:2005600048463B4639460EF03BF902460B460EF015FC834638E7BAF1000F8EDB4FF0000BBE
:20058000594631E7AFF300809C7500883CE4377E0000F07F0000F03F0000E03FB8FF0000A0
:2005A0000000E041FFFFEF3FFFFF3F43B6F5801F4FF0000205DAD04B0EF0C6FA0E466FF078
:2005C0003402DFF844E33315C6F31306A3F2FF3346F07F57764503EB020A47F4401740F380
:2005E000C983C64B00229E4240F304840023CDE90823CDE90C23C24B0022CDE906230AF1EF
:20060000010AA7F5801700263946DDE90623CDE90A010EF0E5F8DDE9062380468946DDE922
:200620000A010EF0DFF802460B460020B4490EF0B5FB0A4601461346CDE90E1202464946D9
:2006400040460EF081FA8C4683467B1043F0005303F5002399190020CDE904BC06460F46EB
:200660004FF0000B6146584632463B46CDE910BCCDE902010EF068FA02460B4640464946A9
:200680000EF0AEF8DDE9062380468946304639460EF0A6F802460B46DDE90A010EF0A0F8A1
:2006A000DDE902230EF050FA02460B46404649460EF096F8DDE90E230EF046FADDE9047856
:2006C000CDE906013A464346384641460EF03CFA77A3D3E9002306460F460EF035FA76A33B
:2006E000D3E900230EF07EF832463B460EF02CFA73A3D3E900230EF075F832463B460EF033
:2007000023FA71A3D3E900230EF06CF832463B460EF01AFA6EA3D3E900230EF063F832469B
:200720003B460EF011FA6CA3D3E900230EF05AF83246804689463B46304639460EF004FA72
:2007400002460B46404649460EF0FEF9DDE9022306460F46DDE904010EF044F8DDE9062376
:200760000EF0F2F932463B460EF03CF8DDE902678046894632463B46304639460EF0E4F9D8
:200780000022604BCDE90A010EF02CF842464B460EF028F8DDE910BC0F46DDE902015A4622
:2007A0003B46CDE90EBC5E460EF0CEF90022CDE90201544B304639460EF012F8DDE90A2365
:2007C0000EF00EF802460B46404649460EF008F8DDE904230EF0B8F9324680468946DDE9FA
:2007E00006013B460EF0B0F902460B46404649460DF0F8FF8046894602460B46DDE9020131
:200800000DF0F0FFDDE90EBC35A3D3E900235846CDE906BC5E460F460EF096F9DDE902231E
:20082000CDE90401304639460DF0DAFF02460B46404649460DF0D4FF2BA3D3E900230EF009
:2008400083F92BA3D3E9002380468946304639460EF07AF902460B46404649460DF0C2FF08
:20086000DDE90C230DF0BEFF8046504689460EF005F906460F46DDE9040142464B460DF020
:20088000B1FFDDE908230DF0ADFF32463B460DF0A9FFDDE906BC324658463B46DA468B4660
:2008A0000DF09EFFDDE9082330E000BFAFF30080EF4E454A287ECA3F65DBC9934A86CD3FC9
:2008C00001411DA96074D13F4D268F515555D53FFFAB6FDBB66DDB3F033333333333E33FC6
:2008E000000000E009C7EE3FFD033ADC09C7EE3FF5015B14E02F3EBE0000404379B60B00DB
:200900000000F03F000008408E9803000DF068FFDDE904230DF064FF02460B4640464946D8
:200920000DF05EFF80468946DDE90012013C54EA050314BFD64CD74C0023CDE904340B46F3
:200940001446CDE9023400230293DDE9024508462B46114622460DF043FF52465B460EF098
:20096000F3F8DDE9002306460F46404649460EF0EBF802460B46304639460DF033FF064603
:200980000F4622462B4650465946CDE900670EF0DBF80B46024680468946304639460DF0E6
:2009A00021FFBD4B064699420D460C4640F30E8101F13F4303F5E003034340F0F081A0A308
:2009C000D3E90023DDE900010DF00CFF424682468B464B46304629460DF002FF02460B463B
:2009E000504659460EF040FB002840F0D8812F463B154FF48012A3F2FE3342FA03F32344DF
:200A0000C3F30A52A54EA2F2FF321641C3F3130B0020C2F1140523EA06014BF4801B0246BF
:200A20000B46002C4BFA05FB40464946B8BFCBF1000B0DF0D5FE02460B4680468946DDE9DD
:200A400000010DF0CFFE4FEA0B5A00247EA3D3E9002320460D460EF077F8424606460F46BA
:200A60004B46204629460DF0BBFE02460B46DDE900010DF0B5FE76A3D3E900230EF064F8F8
:200A800075A3D3E9002380468946204629460EF05BF802460B46404649460DF0A3FE804692
:200AA000894602460B46304639460DF09BFE32463B4604460D460DF093FE02460B46404600
:200AC00049460DF08DFE2246804689462B46204629460EF039F862A3D3E9002306460F4608
:200AE0000EF032F860A3D3E900230DF079FE32463B460EF029F85EA3D3E900230DF072FE13
:200B000032463B460EF020F85BA3D3E900230DF067FE32463B460EF017F859A3D3E90023A6
:200B20000DF060FE32463B460EF00EF802460B46204629460DF054FE06460F4602460B4666
:200B4000204629460EF000F80022CDE900014FF08043304639460DF043FE02460B46DDE95D
:200B600000010EF01BF9424606460F464B46204629460DF0E9FF42464B460DF033FE02465F
:200B80000B46304639460DF02BFE22462B460DF027FE02460B4600203D490DF021FE8A44C5
:200BA000BAF5801FC0F237815146DDE904230DF0CBFF834618E4F346354915E44A4648469F
:200BC0003B4639460DF0C0FF83460DE4344B21F000479F4240F30181324B0B4403430CD143
:200BE00042464B460DF0FCFD02460B46DDE900010EF026FA00283FF4FBAE23A3D3E90023BF
:200C0000DDE904010DF0A0FF1FA3D3E900230DF09BFF8346FFF7E8BBBAF1000FBFF6AEAC0A
:200C2000DDE900349B4604F10041FFF7DDBB02460B46002016490EF0B1F841E4AFF300800F
:200C4000FE822B654715973C00000000432EE63FEF39FAFE422EE63F396CA80C615C20BE16
:200C6000D0A4BE726937663EF16BD2C541BDBB3E2CDE25AF6A56113F93BDBE166CC1663FBE
:200C80003E5555555555C53F59F3F8C21F6EA5010000F03F0000F0BFFFFF8F40FFFF0F0078
:200CA000FFCB904000346F3F6F4B9E427FF763AC6E4B9E423FF7EEAB00226C4B0DF090FDCE
:200CC0005BA3D3E9002306460F460DF03DFF5AA3D3E9002380468946304639460DF034FFC7
:200CE000002282468B46624B304639460DF02CFF02460B4652A1D1E900010DF071FD324645
:200D00003B460DF021FF02460B46002059490DF067FD3246CDE902013B46304639460DF0D5
:200D200013FF02460B46DDE902010DF00DFF46A3D3E900230DF008FF02460B46504659469C
:200D40000DF04EFD02460B4606460F46404649460DF048FD42464B46002082468B460DF0EB
:200D60003FFD02460B46304639460DF039FD80468946D9E500220023CDE90823CDE90C2318
:200D80003A4B00220026CDE906233DE44A463B46002036490EF002F88346FFF725BB2CA370
:200DA000D3E90023DDE904010DF0CEFE28A3D3E900230DF0C9FE8346FFF716BBBEF1000F04
:200DC0007FF44FABC3F1140348FA03F202FA03F3984524D07446FFF721BB264B9F423FF7CD
:200DE00007AEDDE902349A469B462EE602460B46FFF7B9BB204B4FF48026CDE9062316A37E
:200E0000D3E90023CDE9082315A3D3E90023CDE90C23FFF7F9BB5A4600F032F8C5E602F095
:200E20000102C2F10204FFF7F9BA00BFAFF30080000000604715F73F44DF5DF80BAE543EB7
:200E4000555555555555D53FFE822B654715F73F9C7500883CE4377E0000004003B8E23F54
:200E600006D0CF43EBFD4C3EFEFFEF3F0000F03F0000D03F0000E03F0000F83F0000000059
:200E8000F8B5C1F30A5604460D460B46174606BB21F00043034325D000222F4B0DF054FE0B
:200EA0002E4A044697420D460B462ADBC1F30A56363E40F2FE723E44964228DC002E12DD49
:200EC00023F0FF4323F4E00343EA065520462946F8BD40F2FF729642EBD102460B460DF0E4
:200EE00081FCF8BDF8BD16F1350F1DDA4CF250339F420CDC14A1D1E9000122462B460DF0F9
:200F000063FC11A3D3E900230DF01EFEF8BD22460FA1D1E900012B460DF056FC0CA3D3E913
:200F200000230DF011FEF8BD23F0FF4323F4E003363643EA0655204629460022084B0DF043
:200F400003FEF8BDAFF3008059F3F8C21F6EA5019C7500883CE4377E00005043B03CFFFF95
:200F60000000903C044B1A68B2F5806F03D01B689B0500D4FEE7704728ED00E0FEE700BF3F
:200F8000FEE700BF08B50AF029FD104A104B9A420DD2D0430F4918440B4620F00300043001
:200FA000084453F8041B834242F8041BF9D10A480A494FF000028842B8BF40F8042BFADB30
:200FC00000F042F9FFF7CEFF08BD00BF000000208306002008030100840600204E3600207C
:200FE00070B5048886B0064634B1982C51D000230380032006B070BD4AF6AA232B4D2C494E
:2010000028462B806C80AC80EC802C816C81AC81EC8105F0A3FE21462846012205F052FD2D
:20102000244802F031FF244C04F1600514F8023C13B1237C012B31D92034A542F6D11B4810
:2010400005F0D8FCE0B14AF6AA2418491E2008F035FB08F0E7FB0023402202A9ADF808406A
:20106000ADF80A30ADF80C30ADF80E30ADF81030ADF81230ADF81430ADF8163008F0BEF87F
:201080000E4A4FF47A630092194600220C4807F019FD98230120338006B070BD204607F095
:2010A00085FF0A2002F026FBC6E700BFA8060020942D002028FE0000362C0020C5100000D7
:2010C000840600202DE9F04190B0BDF86030BDF85810282B07D0282000903E4802F0D4FE31
:2010E00010B0BDE8F081179C06AE04F12007354620686168A268E3681034BC4206F1100627
:201100000FC5F4D16168206803C6089C20460EF0EFFA0021054620460EF0D6FA002853D040
:2011200028460EF0CBF8014620460EF011F82A490EF018F90EF002FBDDF82C8006464046FC
:201140000EF0FCFA254C6427A4FB00235B0907FB1303404605930EF0CBFA84FB0023DDF809
:201160002880C017C0EB6313404604930EF0E6FAA4FB00235B0907FB1303404603930EF07C
:20118000B7FA84FB0032DDF82480C017C0EB6212404602920EF0D2FAA4FB0032520907FB6C
:2011A0001203404601930EF0A3FA84FB0034C017C0EB6414009433462A460CA9084802F044
:2011C00063FE10B0BDE8F081681E0EF077F80146AAE700BFA0FE00000000C8421F85EB51C6
:2011E0003CFE0000F0B5002706463C463D4683B0304600F0C9F90195019B9C4206DD00BF8B
:20120000019B01330193019B9C42F8DC304600F0C5F90195019BC4F5C874A34206DA00BF4D
:20122000019B01330193019BA342F8DB0137B7F5487F06D0B7F5C87FCCBFC7F548743C46FD
:20124000D6E703B0F0BD00BF2DE9F041604C84B0236801215F485B68984723680122114690
:201260001B685C4898470AF03BF802F0A3FD02F013FD00F0EFFF02F043FD00F07BF9564994
:201280005648574A012303600B6018461368FFF7A9FF0AF029F801F097FB01F017FB03F012
:2012A00023FE02F011FA03F05BFD41F2342003F05BFF02F091FB03F0B9FE4A4802F022FA29
:2012C0004AF6EB020021484802F0DEFD40F65A21464802F0D9FD0021454803F01DFD03F0AE
:2012E00007FB03F075FB0220FFF77CFF414802F0CBFD414B414C186802F004FA404802F0B0
:20130000C3FD404B186802F0FDF93F4802F0BCFD21683E4802F0B8FDE469A04720B1A04746
:2013200001463B4802F0B0FD0A2002F0E3F900250AF040FF02A80821364C374E019502F08C
:2013400019FA9DF80F209DF80E8002AB03CB42EA0828F76A2060616002204AF6CD31B847BB
:2013600041460320B84719210120B847082202A9736B09209847B36A01A90120984701994E
:20138000264802F081FD264B626821685A6019600BF0A0F82946234803F0BEFC0220FFF746
:2013A00021FF2946204803F0B7FC204803F04AFA02F092F90120FFF715FF03F0EBFC044625
:2013C00002F092F914F0FF0FF7D102F063FBF4E7D801001000400340080009400C40094039
:2013E0002C20094018FF000030FF000048FF00000805002068FF000004020100BC02010071
:2014000070FF00007C02010078FF000080FF000084FF00001436002024010100A8FF00002E
:20142000942D0020980500203804002020FE00002DE9F04104880646772C30D07E2C27D031
:2014400024B1002303800320BDE8F08103F05CFC2F4F304B304D3A6818702C60002A55D012
:201460002346A0462D4C04F8038093680021802098472B68013357F823202B60002AF2D1B9
:20148000DBB2274A1370772333800120BDE8F081204B1B788B421CD00120BDE8F081DFF882
:2014A00080801D4D98F800201E4F00233B602B60002AE8D0194CE256002A18DB2B6898F89D
:2014C0000020013393422B60F5DB3B68002BECD1D9E7114D114CDFF84880124F2B683A684D
:2014E000E15C013201F07F01E1543A60E7E7084A084952F823200978002003F0BDFC0028C9
:20150000ECD17E2333800120BDE8F0811346B8E7480400204A360020BC060020FC2B002056
:20152000D22B0020B806002010B40E4B1C7864B10D4A1368984213D0002303E052F8041FE8
:2015400088420BD00133A342F8D1084A0848135D63F07F03135510BC03F0BABC1C46F4E743
:201560000024F2E7D22B002048040020FC2B00203804002008B500F01BF8024B00221A7089
:2015800008BD00BFD32B0020034A137803431846137000F029B800BFD32B0020034A137824
:2015A00023EA00031846137000F01EB8D32B00200A4B1A6802B1704710B50122084C1A605F
:2015C00023680A20DB6B984723680F20DB6B9847044B4FF404421A6010BD00BFC00600208E
:2015E000B4010010A0200240094B0A494FF4044208701A60C20744BF4FF4806243F8102C9A
:20160000830703D5044B4FF400421A60704700BFA0200240D42B00209020024081380128AF
:201620009ABF024B18680020704700BF04070020024B032202481A60FFF776BF0407002037
:20164000CCFF000010B5044682B07721002001F0BDF84CB98DF8074001220DF10701F42012
:201660000BF09EFE02B010BD25238DF80730F3E730B5802885B016D0812810D11D4C206853
:2016800078B151B30120FFF7DDFF00231A4A03211A4803F041F90220206005B030BD154B4C
:2016A000186805B030BD134C012577210020256001F08CF81822124988200BF063FE04A98B
:2016C000B62301F8013D2A46E0200BF069FE0020FFF7B8FF206805B030BD0848019103F05C
:2016E0005DF901990846FFF7ADFF01231846236005B030BD0407002031160000E4060020E7
:20170000CC0600202DE9F843584B1B68032B40F0A880431E012B00F2A480554E00237721D9
:20172000044633601846B38001F050F831460622F7200BF027FE002800F0858031794D4FC9
:20174000F2787379090141EA0231388841EA1312C0EB121303FB03F3B7F904104000B7F943
:2017600002501B13C0EBD20201FB03F305FB02F29B1303EBE2234FEA630CACF57A4C4FEA9B
:20178000AC0E0EFB0EFEB7F90810B7F90A004FEA6E320CFB01F102FB00F2491001EBE2020E
:2017A0009214F98802F5004201FB02F2BB61D01396F8008096F80190B5784CD0B7F90E2086
:2017C000B7F910100CFB02FC4FEAEE2E4FEA4C0C01FB0ECCB7F90C204FEA151E4EEA0916D9
:2017E000120446EA083602EBAC05234906EB253505FB01F101F1434101F5A0010029B3BF76
:20180000B1FBF0F14900B1FBF0F14900CA0802FB02F2B7F914008D08B7F916E000FB05F565
:20182000560B0EFB06F2B7F912006D1305EB22321044012C01EB201110D103EB8300803020
:201840000012BDE8F883304606210BF0C5FD4FF00040BDE8F883012C0146EED00846BDE838
:20186000F8834FF00040BDE8F88300BF04070020C4060020CC060020CBF3FFFF81380128EA
:201880009ABF024B18680020704700BF2C070020024B032202481A60FFF746BE2C070020B6
:2018A000DCFF000010B504464421002000F08EFF002C064B14BF1024002402221C80194675
:2018C000BDE8104010460BF06BBD00BFB82B002010B5802882B017D0812811D11D4C2068D6
:2018E00080B1002929D00120FFF7DCFF00231A4A24211A4803F010F80220206002B010BD59
:20190000144B186802B010BD154C012023689B6B984723684FF480419B6901209847236859
:201920004FF08041DB69012098470020FFF7BAFF084B0120186002B010BD0848019103F054
:201940002DF801990846FFF7ADFF01231846236002B010BD2C070020911800000C07002025
:20196000B401001038B5354B1B68032B0BD1820709D003280FD0012809D0022803D1304BC1
:201980001B68184638BD4FF00043184638BD2D4B1B68184638BD2C4D44210446002000F016
:2019A00015FF2946022204200BF0ECFC70BB274D264804210BF010FD00202C786B78A97877
:2019C000EA7843EA042442EA01220028DBD090080DF074FC4FF074510DF0C4FC1C490DF006
:2019E000C1FC0DF085FE174B154D1860A0080DF065FC4FF074510DF0B5FC15490DF0B2FCAD
:201A00000DF076FE01232860184638BD2A88130A43EA02239BB22B805B040C4DC8D50222C4
:201A2000294601200BF0AEFC0028C1D002222046A9180BF0A7FC0028BFD1B9E72C07002024
:201A40003407002008070020B82B00203007002000007A44014B1868704700BF5807002023
:201A600070B506460E4C82B045210020256800F0ADFE76B905F002054FF486532560ADF84A
:201A8000063002220DF1060101200BF089FC02B070BD41F2C2020123ADF806202360F0E727
:201AA0005807002000B5452183B0002000F08EFE02220DF1060101200BF064FCBDF906302C
:201AC000002B08DB0023084A1021084802F024FF03B05DF804FB0648FFF726FD054B02220B
:201AE0001A6003B05DF804FBA51A000038070020FCFF000058070020802810B50DD08128DA
:201B000009D10C4671B90D4802F048FF2046FFF7A7FF204610BD002010BD0020FFF7A0FF0A
:201B2000002010BD0120FFF79BFF0023044A1021024802F0F1FE012010BD00BF380700202E
:201B4000A51A0000813801289ABF024B18680020704700BF7C07002070B5134C134A237809
:201B600003211160CBB1124D4321002000F02EFE2846042100F034FD00212070084600F0B2
:201B800025FE28886988020A0A4E0B0A0A4D42EA002243EA012332802B80012323700748AF
:201BA000BDE87040FFF7C0BCD52B00207C07002080070020BA2B0020BC2B00200C000100DB
:201BC00030B5802883B023D081281DD1234C2068E0B100293AD0224D2B785BB1432100205E
:201BE00000F0F4FD002000F0D9FC00212870084600F0ECFD00231B4A03211B4802F08CFEB4
:201C00000220206003B030BD144B186803B030BD164B0024164A174D20461C6043211480E0
:201C20002C8000F0D3FD02A90222102321F8023D10460BF0B5FB0A4B21461870204600F043
:201C4000C5FD064B0120186003B030BD064802F0A5FE01231846236003B030BD7C0700200D
:201C6000D52B0020591B00005C07002080070020BC2B0020BA2B002008B5174B1B78032BBA
:201C800028D8DFE803F01E150C020CF0F7FE00224FF07D530CF058FF0DF006FA08BD0CF016
:201CA000EDFE00220D4B0CF04FFF0DF0FDF908BD0CF0E4FE00220A4B0CF046FF0DF0F4F93D
:201CC00008BD0CF0DBFE0022064B0CF03DFF0DF0EBF908BD002008BDD92B00200000303FA1
:201CE0000000203F0000103F813801289ABF024B18680020704700BFAC070020024B022254
:201D000002481A60FFF710BCAC0700202400010010B50C4C6821012000F058FD3F23214670
:201D200001226C2023700BF03BFB21464F2301226B2023700BF034FBBDE810400021084688
:201D400000F044BDDA2B0020802838B50BD0812806D111F03F012DD1294B1B68DB043BD459
:201D6000284B186838BD284C072023689B6B984723684FF400519B690720984723684FF07D
:201D80008041DB690720984723680C20DB6B984723684FF440729B6A4FF480610C209847A8
:201DA0001A4A4FF480501A4B1060164900221A60086838BD1648174B124D4FF480520160E2
:201DC00001241A6008210023134A14482C6002F0A3FD2C60204638BD0D4B1048196002F03F
:201DE000DDFDFFF795FF0E4A136813F00103FBD1044A06494FF4805013600860106838BDE1
:201E000080200240AC070020B4010010A0200240B0070020902002404D1E00008C0700205F
:201E20000428004010B5084C6821012000F0CEFC214601223A200BF0A5FA0021084600F0DC
:201E4000C5FC207810BD00BFD62B00202DE9F041364C236813F0380F28D1354D03F03F042D
:201E60002E785EB9002C3BD1FFF752FFBDE8F0410023304A0521304802F04EBDE3B22B70E8
:201E8000002CF1D02D4FDB43682101203B7000F09DFC012229496C200BF082FA00210846D6
:201EA00000F094FC264809F023FADFE7254E3278002AD2D0244F0025682101203D7000F090
:201EC00085FC394601221C200BF06AFA07462946284600F07BFC2368002FBED03570BCE723
:201EE000164F6821012000F071FC0923394601226B203B700BF054FA3F23394601226C2099
:201F00003B700BF04DFA01220F491C202E700BF047FA394601223A200BF034FA3146304631
:201F200000F054FCE3B22B70ADE700BFB0070020D82B0020FD1C00008C070020DA2B0020F3
:201F400080380100D92B0020D72B002008B5034B1B685B689847C0F3804008BDB401001055
:201F600028B1012806BF054BD86800207047044B186800F0010080F001007047C407002060
:201F8000C020024028B1012806BF054BD86800207047044B186880F01000C0F30010704728
:201FA000B4070020C0200240813801284FF0000000D97047FFF7CABF8138012801D9002018
:201FC00070470420FFF7C2BF802870B514460AD0812807D1E9B9BDE87040194B10461B68F9
:201FE0005B6B184770BD164B164A0125A5401B68156020461B68144A00219847134AE0B295
:202000001368134923EA05051560BDE8704001F061BE0B4E0B4A01253368A54015602046C9
:202020001B68094A00219847084A31681368204623EA050515600B6BBDE87040184700BF89
:20204000B4010010E020024000400760D02002406D20000008B50022FFF7B6FF012008BDA3
:2020600008B50422FFF7B0FF012008BD38B518B10428044614D038BD1D4C204602F074FFB9
:202080000028F8D00421204602F05AFF194B1B6813F001051DD100F067FCE560A06038BD0F
:2020A000154D284602F060FF0028E4D02146284602F046FF0F4B1B6813F0100413D000F050
:2020C00053FCAB68C31AEB600C48BDE83840FFF72BBA00F049FCA368C31AE3600848BDE8D5
:2020E0003840FFF721BA00F03FFCEC60A86038BDC4070020C0200240B407002054000100E6
:202100003C000100024B186800F00800704700BFC02002408138012801D90020704708B5D5
:20212000034B03201B685B689847C0F3804008BDB4010010802810B509D0812805D1134BE9
:2021400003201B68E9B95B6B9847012010BD0F4C032023685B6B98470D4B0E4A1B6808219A
:202160001160DB694FF4A060984723680A4A1B680021032098470949032001F0ABFD0120D4
:2021800010BD1B6B9847012010BD00BFB4010010B8010010E020024000200320A12100008B
:2021A00008B5074802F0E0FE00B908BD0548FFF7BBF9BDE808404021014802F0C1BE00BF07
:2021C000D40700206400010010B5064C042023685B699847236804205B6B98470128F9D1EF
:2021E00010BD00BFB8010010FFF7EEBF032801D000F01EB908B50BF0BDF9104B00219B6837
:20220000812098470E4B00219B68812098470D4B00219B68812098470B4B00219B6881202A
:2022200098470A4B00219B6881209847084B4FF480521A60BDE8084000F0FAB8CCFF00008A
:20224000FCFF0000DCFF00000C00010024000100A020024070B509F043F80646FFF7B4FF26
:202260003C4B4FF4A0601B68DB6998473A4B01213A4A196013689B07FCD5394C00F0A2F84D
:202280000BF072F90BF066F9364801F0F9FC236819209B6B984723684FF400519B69192015
:2022A0009847236818209B6B984723684FF400519B6918209847236817209B6B984723682B
:2022C0004FF400519B691720984723681B209B6B984723684FF400519B691B2098472368DD
:2022E0001E209B6B984723684FF480419B691E20984723680D20DB6B98471B4A4FF4005531
:202300002368156000214FF480729B6A0D209847236802209B6B9847236829469B690220A4
:20232000984723680B209B6B9847236829469B690B20984723681D209B6B98472368294674
:202340009B691D20984706B170BDBDE8704008F0CBBF00BFB80100102820086028200840DA
:20236000B40100106C040020A020024010B5094B09481B685B68984710F00C0F044605D03D
:20238000064B04221A60022008F0B2FFB4FA84F0400910BDAC0100100020004004280040C0
:2023A00008B5064B02201B685B6B9847012803BF034B186800F00100002008BDB80100106D
:2023C0006020084070B5134D02202B685B6998472B6802205B6B9847012804460D4BF7D16B
:2023E0001B684FF44070DB6998470B4B0B4A1C6013689B07FCD50A4B4FF440701B6B984782
:20240000BDE87040074B01221B6807491B680748184700BFB8010010282008602820084026
:2024200048000010AC010010006CDC0200200040234B10B5FF221A70FFF7B2FF38B1214B03
:20244000214A00211960136823F0100313601F4B4FF440701B681B6A98471D4B01211D4A2E
:20246000196013689B07FCD51B4C082023689B6B984723684FF400519B6908209847236841
:2024800009209B6B984723684FF400519B6909209847236805209B6B984723684FF48041DF
:2024A0009B6905209847236806209B6B984723684FF480419B690620BDE81040184700BFB2
:2024C000800600200428004020280040B80100102820086028200840B40100102DE9F84343
:2024E00005462A4B2A4A1B780E465B0013602949037804320B601368274C5F06FBD403231D
:202500002360022008F0F4FE2368D807FCD4FFF72DFF012E034625D908B3013506F1FF393A
:2025200002241C4FDFF8708002E0B4421CD2013415F8012B631E99453A60F6D90123C8F863
:202540000030022008F0D4FED8F80030D907FBD4FFF70CFFB442034604D20028E7D100209A
:20256000BDE8F883002BFAD00B4C05232360022008F0BEFE23461A68D207FCD4FFF7F6FEF0
:20258000054A13685B06FCD4BDE8F883DB2B002000280040082800400428004010B50C4B9A
:2025A0000C4C1B780C495B000C4A2360086013680A4C5906FBD407232360022008F098FEE3
:2025C0002368DB07FCD4BDE81040FFF7CFBE00BFDB2B00200028004008280040042800401D
:2025E0002DE9F84F8146274B274A1B7888465B0043F00103254913600B68244A13F04004D8
:20260000FAD116460B231360022008F071FEB346DFF87CA008F1FF370125A74216DDFDB19E
:202620003368D807FCD4FFF7A1FE05460028F4D0DAF80020092309F804200134CBF8003019
:202640000220E4B208F054FEA742E8DC45B10F4A13680E4DD907FBD4FFF788FE044618B960
:2026600000242046BDE8F88F094BC8441A68052308F8012C02202B6008F03AFE2B685B069C
:20268000FCD4EEE7DB2B00200028004004280040082800402DE9F04F0546484F83B09846E3
:2026A0003B780192464A5B0013608A460378454904320B601368444C5906FBD4032323601A
:2026C000022008F015FE2368DA07FCD4FFF74EFEBAF1010F034625D900B301350AF1FF3931
:2026E0000224DFF8E0B0384E02E054451CD2013415F8011B631E4B45CBF80010F5D2012331
:202700003360022008F0F4FD3368DB07FCD4FFF72DFE5445034605D20028E8D1002003B040
:20272000BDE8F08F002BF9D0274A3B78154624485B0043F001030B2103600220116008F0EA
:20274000D7FDAA461F4F08F1FF3601244FF0000BB34516D2002CE1D02B68D807FCD4FFF7B5
:2027600005FE04460028F3D03A680199092301F80B200220CAF8003008F0BAFD0BF1010BCA
:20278000E6E7002CCAD0104A13680F4CD907FBD4FFF7ECFD0028C1D0019A0A4B42449046E3
:2027A0001A68052308F8012C0220236008F0A0FD23685B06FCD40120B1E700BFDB2B0020AE
:2027C0000028004008280040042800402F4B10B504461970FFF7E4FDC8B12D4B1A78A24265
:2027E0001BD02C4A2C4900201C7010600A6822F010020A601B788BB1012B2BD0BDE81040FC
:20280000264B01221B6826491B6826481847FFF7D9FD1F4B1A78A242E3D110BD224C4FF404
:20282000C041236805209B69984723684FF4C0419B6906209847236806220521DB6C1948AB
:202840009847236808209B6B9847236809209B6B9847D3E7144C4FF4C041236808209B6953
:20286000984723684FF4C0419B6909209847236809220821DB6C0B489847236805209B6B90
:202880009847236806209B6B9847B7E7DB2B0020800600200428004020280040AC010010A8
:2028A000006CDC0200200040B401001010B5064C042023685B699847236804205B6B9847EC
:2028C0000128F9D110BD00BFB801001038B51A491A4D1B4C002380201A4A2B6023600860F5
:2028E000136804205B6B9847012801D0FFF7DEFF144B00201B68DB699847134B0121134AC5
:20290000196013689B07FCD5114A12491368096823F4807323F001030F4C13600B682046E6
:202920000E49984740F221220D490E4B04253120256008601A6038BDE4070020E007002055
:20294000DC070020B801001028200860282008400C000140C80100100000014000210004DF
:202960003C00014008000140014B1868704700BFE007002008B50B4A13680133136002F022
:2029800007F958B9084A1368013B13602BB9074980200B6801330B60106008BD02F0CAF8DB
:2029A000F0E700BFE0070020E4070020DC070020014B1868704700BFDC070020704700BFB1
:2029C00000F06CB808F07ABCF8B508F089FC214C214D23682A6823F00103236053680646F2
:2029E000012098472B681D4F5B68042098473B6823211B68002098473B6825211B6801201C
:202A000098472368164923F4E0232A6843F4A0234FF400702360086053690120984708F0F5
:202A20004DFC2B6800F500715B6A042098472B680420DB69984723680A4A43F00103126822
:202A4000236013691420984706B1F8BDBDE8F84008F04ABC002009408C0100108401001082
:202A600024200940B001001038B50A4D04202B689B6A9847084B04461B68DB0700D438BD5E
:202A80002B6804209B6A9847031B10EA230038BF204638BD8C0100101420094010B5064CDD
:202AA0000146236801205B6A984723680120DB69BDE81040184700BF8C01001010B50E4CC0
:202AC000012023689B68984770B90B4C042023689B68984700B910BD236804205B68984780
:202AE000BDE81040FFF746BF236801205B68984702F012FAE9E700BF8C01001008B5B329D5
:202B000094BF0A46B422014602480CF0FFFF012008BD00BF84080020F8B5154E3468237918
:202B2000032B01D00020F8BD237A032B04D9277AFFB23D1F8D4206DD2268002323722371E3
:202B400032601846F8BD2A4604F1090107370CF0DDFFE15D042049B289B209F091FC336892
:202B6000002219681A7231601A712846F8BD00BF8008002038B50388054673B140F256729F
:202B800093420FD10C4C09F0F7FB09F0ABFB8021FFF7C2FF002880B208DC40F256732B8062
:202BA000012038BD00230380032038BD09F094FB23699847E7E700BFBC02010038B50A4DBE
:202BC00000202C6803E024682B689C420AD02379032BF8D1054802F07BF924682B68012001
:202BE0009C42F4D138BD00BF78080020CC04002008B5054B01201B685B6B9847A0F1010006
:202C0000B0FA80F0400908BDB801001008B5094B1B68DB0701D4002008BDFFF7E9FF00288D
:202C2000F9D0054B588880B2A0F10200B0FA80F0400908BD9C2108403809002008B5FFF795
:202C4000E5FF002814BF0120022008BD70B506460C4608F045FB144B05461B68DB0702D4AD
:202C6000DDB1002070BDFFF7C3FF0028F8D00F4B0F481E6003684CF2503223602BB90368A5
:202C8000013A2360ECD0002BF9D055B12068A0F10100B0FA80F0400970BD08F025FB0020DE
:202CA00070BD08F021FBF1E79C210840001004400410044070B582B001A90E48FFF7C6FF38
:202CC0000646FFF77FFE6FF03F040A4D241A03E0FFF778FEC44203D56B889BB2022BF7D19C
:202CE0006B889BB2022B02D0002002B070BDF0B202B070BD3809002030B583B008F0F0FABA
:202D0000264C0546236819201B6A9847236812201B6A9847236819205B6998472368122089
:202D20005B6908349847236801205B699847236801205B6B98470128F9D11949194B1A4AF7
:202D40000860186013689907FCD5184C2368DB07FCD5FFF74DFF0028F8D0104C14481549BD
:202D60002268002303600B60136919209847236812201B6998476DB10F4B07221A6001A95F
:202D80000E48FFF763FFA0F10100B0FA80F0400903B030BD08F0A8FAEEE700BFB001001001
:202DA0002C20084028200860282008409C21084010100460141004600000046001000604BF
:202DC000092801D001207047082A01D0022070470029FBD0054B0139A3F1080013F8012DEA
:202DE000834201F8012FF9D10020704768090020114B1B68DB0701D40020704710B582B04F
:202E0000FFF7F6FE78B142F203420C4C0023204601A9236023712280FFF718FF18B194F97F
:202E20000230803302D0002002B010BD2079C0F381000128F7D1F7E79C210840E80700208C
:202E400070B5FFF7D5FF0028FBD1044608F048FA274E0546336819205B6998473368122007
:202E60005B699847234B1B68DA0737D42248234B00240121224A0460196013689B07FCD57D
:202E8000204C012023689B699847236801205B6B98470228F9D1164C192023681B6A984768
:202EA000236812201B6A9847236819201B699847236812201B6998470DB908F015FA00F0ED
:202EC000C3FF114D11481249124C134A00232B71638003710B711371012070BDFFF788FE83
:202EE0000028C3D00D4A0E4B14601C60BEE700BFB00100109C2108402C2008402820086009
:202F000028200840B8010010B8090020440A0020D00A0020380900205C0B002010100460A3
:202F20001410046000B583B0FFF770FEE8B1FFF75FFF0028FBD101A90E48FFF787FEFFF76B
:202F400065FE0028FBD142F202410B4A53889BB28B420AD042F2074053889BB2181AB0FA00
:202F600080F0400903B05DF804FB012003B05DF804FB00BF01000104380900202DE9F041FC
:202F80000D4C42F20347A04682B000250A4E01A93046256025712780FFF758FE38B198F81E
:202FA00002305B06F2D0307902B0BDE8F081FF2002B0BDE8F08100BFE8070020F0B583B0BE
:202FC00000F01CFFFFF722FE10B1012003B0F0BD0446FFF791FE012802D0204603B0F0BDFE
:202FE000404B00F180601C6001A900F5A020FFF72DFE0128F1D13C4B3C4D3D483D493E4AEB
:203000000B601D60286001601768042684225E71DA80FB076E7146714E71EA80C280CA801A
:203020003AD440F6020700F0FBFE344A344D002301241268EB602B602B616B616B60AB6095
:203040006C73537912799B0102F03F02DBB22D4E134301A928462F806B826E61AC73FFF775
:20306000F5FDA04201D00020B0E76B88264C9BB203E06B88013C9BB2AFD003F44062B2F523
:20308000806FF6D1B3F5806FEDD1FFF7BFFD00289BD1FFF70FFE99E7FFF7AAFD0028C0D007
:2030A00008F01EF90646194B194D4FF000421A601849194A19482B68086014601B6A19209E
:2030C00098472B6812201B6A98472B6819201B6998472B6812201B699847002EA1D108F0F9
:2030E00003F99EE7280000215C0B0020B8090020440A0020D00A00209C210840C804002045
:20310000E80700208004002020A1070018100460B0010010141004601010046000008080DB
:20312000092801D001207047082A01D0022070470029FBD008B5144B083103F1080011F88B
:20314000012D03F8012F9842F9D1FFF75FFD28B9FFF734FF01280AD0032008BDFFF7E2FE55
:20316000FFF754FD0028F7D1FFF7A4FDF4E7FFF7D9FEFFF74BFD18B1FFF762FE032008BD94
:20318000FFF798FDF8E700BF5F09002010B584B007283ED8DFE800F0101726292C3D3F0467
:2031A000444B1977FFF732FD98B9FFF707FF012847D0032004B010BD012951D0002949D00D
:2031C000022004B010BD3B4B9973FFF71FFD0028EBD0FFF7A7FEFFF719FD0028E9D1FFF746
:2031E00069FDE6E7334B5986DCE7324B1986D9E731F00303E4D111F0010F0CBF02200320A3
:2032000011F0020F0CBF002304232A4A03431383C8E70120CEE701F115031A2BD0D8264A4B
:203220006FF014030C2401E052F8343099421CDD14F1FF34F8D2214B1B68DB071BD40020A3
:20324000B8E7FFF76FFEFFF7E1FC78B3FFF7F8FD0320AFE70191FFF7F3FD01990846A9E7DA
:20326000FFF7ACFE0128A4D1E9E7134B144A03EBC4031360DFE7FFF7BBFC0028DFD00E4BB9
:20328000102203EBC4042379617903F03F03A47961F3871303A802A98DF80E308DF80F40A3
:2032A000ADF80C20FFF7D2FC002083E7FFF702FDCCE700BF380900207C0001009C210840A5
:2032C000C804002069B130B50C4683B00D2860D8DFE800F00E161B20255F33393F5F5156C6
:2032E0005A090220704705230B60002003B030BDFFF78CFC031C18BF012300202360F5E728
:203300002F4B00209B7B0B60F0E72D4B00205B8E0B60EBE72A4B00201B8E0B60E6E7284A15
:2033200000200860137E03F001030B60128B520723D543F002030B60D8E7224B00201B68B2
:203340001B680B60D2E71E4B002093F91C300B60CCE7FFF75BFCF0B140F203421A4B01A9D3
:2033600018461A80FFF772FC9DF906502560803503D10320BAE70B230B60002003B030BDDA
:203380001A230B600020B1E76FF014030B600020ACE70120AAE7FFF711FE01280CD140F24A
:2033A0000342094B01A918461A80FFF74FFC9DF90650FFF745FDD9E76FF07F032360D8E78A
:2033C00038090020C8040020E807002038B5FFF71DFC28B9FFF7F2FD012811D0002038BDB0
:2033E0000025FFF713FC0028F8D0FFF701FD0028F4D1FFF70BFC48B900241DB9204638BD7F
:203400000546EEE7FFF71CFD204638BDFFF7B6FDFF28F1D000F00304A4F10104B4FA84F4DA
:203420006409EAE738B5FFF7F1FB48B1FFF7E0FC04460028FAD1FFF7E9FB00BB012038BDCC
:20344000FFF7BCFD0128044607D1FFF7DFFB40B92546FFF7F5FC284638BDFFF7F1FC0120F0
:2034600038BDFFF78BFDFF28F2D000F0030010F1FF3018BF01200546002CEAD138BDFFF7B8
:203480007DFDFF28F1D1D9E770B582B00646FFF7BDFB38B90446FFF791FD012846D0204654
:2034A00002B070BD0025FFF78DFA6FF01F04241A03E0FFF787FAC44234D5FFF799FC0128AE
:2034C0000346F6D000282DD142F601401A4D1B491B4C1C4A2B6028800C600124EB60284629
:2034E00001A96B60AB606B612A616C73EE73FFF7ADFB38B92046114B134A1A6002B070BDAE
:2035000000F0B4FB6B8803F44063002BF8D06C880A4BA4B2B4F510540B4A18BF0124204629
:203520001A60EBE725B9022002B070BD0546BAE7FFF786FCF7E700BFE807002014100460C8
:2035400008008080840800200000808010B50C46B32998BF2246014688BFB42203480CF05A
:20356000D5FA2046BDE81040FFF78EBF84080020F8B5274800F084FB264F274B05221A601F
:2035800038468C2200210CF09BFB8C22002123480CF096FB8C2200212148224C0CF090FB58
:2035A0008C22002120480CF08BFB204E204B002529463C2220461F603760756040F20717E6
:2035C0000CF07EFB42F60101DFF86CE019223923A273A622FF202180E3737B210123266148
:2035E000C4F814E027832277A076E176637384F83730FFF7E3FC012802D02C462046F8BD55
:20360000044629460B4801F087FB2046F8BD00BFB4040020B8090020D0210840440A0020F1
:20362000D00A0020380900205C0B00207808002080080020CC0400206808002008B507F02C
:203640004FFE0A4B1B68DB0704D4FFF755FB012804D008BDFFF7CCFA0028F6D0044B002268
:203660001A60BDE8084007F03FBE00BF9C2108401010046008B5104B1B68DA0707D40F48F9
:2036800000F040F8FFF738FB012804D008BDFFF7AFFA0028F3D007F023FE094B1B681B0281
:2036A00006D4074B00221A60BDE8084007F01CBE044801F00DFCF4E79C210840E400010079
:2036C00010100460CC040020014B024A1A60704700000840FFFF0F00024A136843F0020359
:2036E0001360704708000840014B01221A6070470C00084010B50446C0B200F081F920460B
:2037000010BD00BF70B506460024451E04E015F8010F00F075F9013430460CF049FBA042F9
:20372000F5D80A2000F06CF900F07EF90128FBD0204670BD70B50446B0B10078C0B1A9B13C
:203740000025661804E014F8010F38B1B44205D000F056F9631C05F10105F4D100F064F946
:203760000128FBD0284670BD0546F7E70D46F5E70546F3E710B40B4B0B4C13F8012FFF2A68
:203780000DD1A342F9D1094A39B11144013801390B78914200F8013FF9D110BC7047044A6E
:2037A000F2E700BFC7FF0100CFFF0100F0120050C8FF010038B50C4D02202B685B69984723
:2037C0002B6802205B6B984701280446064BF7D11B684FF40070DB699847044B044A1C6091
:2037E00013689B07FCD538BDB801001028200860282008402DE9F04340F2F275DFF8E080C4
:2038000083B0FFF7D7FFD8F800302B4EDB682B48984733682A4C5B69152098472368DFF850
:20382000C490284F23F4FE63D9F8002023F0020323603D60D36B1D2098472349D9F8002065
:203840004FF0FF334FF0005008600093D2F840901C211D221948C847D8F800206023D2F8AA
:2038600004801A494FF4E1321448C04740F2011240F2013E1649174B1420086019681648B6
:2038800041F01001196003681449002B0CBF134673460B603D60036853B12368326843F0CE
:2038A000500323601369152003B0BDE8F043184703B0BDE8F08300BFB001001000100040FC
:2038C000381000404410004090200240006CDC02341000402C100040E80B002030100040FD
:2038E000D0010010B401001008B5064B02201B685B6B9847012803BF034B186800F0010020
:20390000002008BDB80100106C20084038B50446FFF7EAFF18B1264A13681907FCD4032C3C
:2039200003D0244B1B6803B138BDFFF7DDFFF0B9214D4FF400702B681B6A9847032C2CD05B
:203940001E4B01211E4A196013689B07FCD51D2000F0A8F91C2000F0A5F94FF0FF3000F017
:20396000A1F9BDE838404FF0FF3000F09BB9154B15481B68DB689847144B15201B685B69A1
:20398000984740F2F270124A1249136823F4FE6323F0020313600860CAE72B684FF4007020
:2039A0009B6A98472B684FF400701B6B9847C7E718100040E80B0020B801001028200860D6
:2039C00028200840D001001000100040B0010010381000404410004010B507F081FC0446C6
:2039E000054800F04DF9054B00221A6004B110BDBDE8104007F078BCDC040020E80B0020A3
:203A000010B50446FFF770FF08B9FFF7F3FE044B2146BDE810401B680248DB69184700BFB0
:203A2000D00100100010004008B5FFF75DFF18B1024B1868C0F3C00008BD00BF1810004051
:203A400038B5FFF7B7FE40F2F2710C4B0C4A1B68116013F0500F10D00A4C0B4D05E02B6830
:203A60001B699847094B1B6823B923680848DB06F5D538BDC0B29847F7E738BD4010004001
:203A80004410004018100040D0010010E80B00200010004070B5FEF7E7FF0446FEF792FF16
:203AA000201AB0F5807F00F1A3805F4801F0D4FA0446002800F098800225636823B198478F
:203AC000A84228BF2846C5B22468002CF5D101F0C9F9002840F08B80012D00F0898007F07E
:203AE000FFFB514801F0B8FA0446002800F087800626A3680BB1284698472369246826EABF
:203B00000306002CF5D1FFF7EFFD730706F0060478D4002C7BD100F097F944484449036886
:203B2000444A23F0030303600B68434823F4C0530B601368016843F00F0313604B68002079
:203B400098473E4B39201B683D4D9B6998473D4B00261B682E60DB68012098473A492E60A1
:203B60000A683A4B22F480720A60186810F02000FBD107F083FF062C51D0354C354D364E1D
:203B80002B682368326823F0030323605368032132489847294B1B689B6B98472B6808F032
:203BA0005BF82F4A30681368012123F00103136043682A48984723682A4A012143F0030324
:203BC000236011602B6808F07FF8174801F044FA044628B1E36803B198472468002CF9D1DE
:203BE000BDE8704007F080BB01F03CF9A8B170BD1D4A136823F00403136030BF70BDFFF711
:203C000073FD0624174B00221A60002C83D00B4B20461B689B6998477DE702255FE7022078
:203C200007F00AFCA9E700BFEC0B002000100940041009400810094090010010B8010010A0
:203C400040100940A00100102010094014100940242208402C200940D801001000400340A5
:203C60000C2008400C40094010ED00E0034A136823F00403136030BF704700BF10ED00E0C7
:203C80000146014801F0F4B9EC0B00200146014801F040BAEC0B0020014801F0D9B900BFC2
:203CA000EC0B0020431C10D010B50446074B4FF4C0421B6800211B689847054901230A681E
:203CC000A34022EA03030B6010BD7047B4010010D020024038B504460D4607F001FB012368
:203CE0000549064AA3400B6042F8245000B138BDBDE8384007F0F8BAE0200240F00B002061
:203D0000064B002103F1800243F8041F9342FBD1034B10201B681B69184700BFEC0B002002
:203D2000B0010010F8B5094B094F1D6800241D60012606FA04F32B42E0B203D057F82430B0
:203D400003B198470134202CF3D1F8BDE0200240F00B002010B520B9084B01201B685B6821
:203D60009847064B40201B685B689847BDE81040034B00201B689B68184700BFA0010010D6
:203D80009001001038B50A4C07F03AFB236801209B689847236805461B68012098472368A1
:203DA00001209B6898471128F9D1284638BD00BFA001001010B582B0FFF7E4FF04460420EC
:203DC00007F00EFB032810D00321042007F0E0FA042007F005FB0328FAD100901C234FF0A0
:203DE00040520021044807F087FA204602B0BDE81040FFF7AFBF00BF00A00C4010B5FFF775
:203E0000C1FF0446012007F0EBFA012803D00121032007F0BDFA2046BDE81040FFF79ABF02
:203E200010B5FFF7AFFF0446012007F0D9FA012802D0044B9B6B98472046BDE81040FFF764
:203E400089BF00BF4800001010B5FFF79BFF00210446032007F09CFA012007F0C1FA10B1FF
:203E6000034B9B6B98472046BDE81040FFF772BF480000100AB90020704708B50846114639
:203E8000FFF758FC002008BD0FB400B583B004AB53F8041B04481A46019300F025F803B02F
:203EA0005DF804EB04B07047F0040020102970B50C46054602D80AE0102C0BD92B6810229B
:203EC000084968689847103C0028F5D070BD08460029FBD022462B6868680249BDE87040CF
:203EE000184700BF5C0101002DE9F04F834688468FB001924FF0000998F80030002B00F065
:203F0000E380252B08BF45461DD0444603E0252B00F045812C466378651C002BF7D14545F1
:203F200000F0D280C8EB050641463246DBF80030DBF804009847002840F03D826378B144E2
:203F4000002B00F0C1806B7805F10108002B00F0BB800025A3F12002102A1BD8DFE802F00C
:203F6000171A1A141A1A1A1A1A1A1A111A0E1A1A090045F0100518F8013FEBE745F001050F
:203F8000F9E745F00605F6E745F00805F3E745F00205F0E7A3F13102082A00F2D580002491
:203FA00004EB840403EB440418F8013F303CA3F13002092AF4D92E2B00F0CE804FF0FF36C7
:203FC0006C2B00F0E280682B00F04481782B00F28180DFE813F079007F007F007F007F00DB
:203FE0007F007F007F007F007F007F007F007F007F007F007F007F007F007F007F007F00D1
:204000007F007F007F007F007F007F007F007F007F007F007F007F007F007F007F007F00B0
:20402000E2027F007F007F007F007F007F007F007F007F007F007F007F007F007F007F002B
:204040007F007F007F007F007F007F007F007F007F007F007F007F00DF027F007F007F000E
:20406000DC02D902D6027F007F007F007F007F007F007F007F007F007F007F007F007F003C
:204080007F007F007F00D3027F007F007F007F007F007F007F007F00D0027F00CD02CA02EA
:2040A000C702C402C1027F00CA027F007F007F007F00BE02BB027D007F007F00B8027F0036
:2040C000B5027F007F00B20248460FB0BDE8F08F45F4407505F4E063B3F5806F08F1010843
:2040E00000F06E815FD9B3F5C06F00F0A181B3F5E06F00F09681B3F5A06F7FF4FDAE019A52
:20410000012C136888BF04F1FF3402F104028DF8203098BF0024EB07019200F1F3812146EE
:204120005846FFF7C3FE002840F045810122DBF8003008A9DBF8040009EB0205984700285C
:2041400040F03981254497E12A2B00F08D802E2B4FF000047FF432AF98F8013008F1010196
:20416000A3F13002092A00F28D808846002606EB860603EB460618F8013F303EA3F1300218
:20418000092AF4D96C2B7FF41EAF98F801306C2B00F05A8108F1010845F0600516E7454502
:2041A0007FF4C0AECFE6B3F5807F70D0B3F5407F7FF4A2AE0198B24B15F4804FB14F18BF13
:2041C0001F4603460168043301930A460023002900F0AB810DF1330E7046110941EA037197
:2041E0004FEA131C02F00F0663460A46B95D00F8011D52EA0301F0D1BEEB000600F0978173
:204200000336B4424FF078034FF0300200F8013C00F8022C4FF023038CBFA41B0024EA0765
:2042200000F8033CA0F1030700F1BA8121465846FFF73CFE002840F0BE803946DBF8003033
:204240003246DBF804009847002840F0B48009EB060511E198F80130682B00F0B58108F140
:20426000010845F04005B1E6019A08F10108134614680433002C0193B8BF45F0010598F879
:20428000003098E62A2B00F0A681884696E6002EABBF25F0100501230596059315F4005345
:2042A000049305F0E00300F0F580402B00F0A88200F29B81002B00F06182202B40F08A8212
:2042C000019991F900200431D3170191002A73F10001C0F25F82CDE902230023069305F437
:2042E000C053B3F5805F00F0F080B3F5C05F00F0CC81B3F5006F00F0ED810DF1360A0027E6
:2043000041F60803059941F208028F4203EA050380F08E819342A1EB070600F0518241F6D3
:204320000802934207EB060100F08D8100231A460293049B83B1069B002B40F0928105F0B8
:204340000603022B00F053824F48062B08BF0246029B08BF01230293029B0B449C428CBF59
:20436000E41A002415F00103049304D1E80640F11D8226441C46029838B11146DBF800303F
:204380000246DBF804009847A8B9102E07EB090540F2C381B14603E0B9F1100F40F2BF81F5
:2043A000DBF8003010223949DBF804009847A9F110090028F0D04FF0FF300FB0BDE8F08FA4
:2043C000019A1346D2F800A004330193BAF1000F00F0E8819AF8007037B1574617F8013FCB
:2043E000002BFBD1CAEB0707002E02DBB74228BF3746BC428CBFE41B0024E9072BD42146D9
:204400005846FFF753FD0028D5D15146DBF800303A46DBF8040098470028CCD107EB090555
:204420002AE0019A136804320192C3F8009063E5DBF8003001221649DBF80400984700289D
:20444000B9D109F1010957E598F8023045F0800508F10208BAE55146DBF800303A46DBF887
:20446000040098470028A6D12146584607EB0905FFF71CFD00289ED104EB05093CE500BF32
:204480007C01010090010100B40101006C010100C0010100402B00F0AE8100F2B680002B49
:2044A00000F06181202B40F0E080049A019906920A780023CDE902230B460433019305F4EA
:2044C000C053B3F5805F7FF410AFDDE90223134300F09D810DF1360307939A46DDE9022325
:2044E000D00840EA4370DE0802F007013346024630310AF8011D52EA0301F1D1079BCAEB8C
:204500000307FDE6DBF80030012208A9DBF80400984700287FF44FAF2146584609F1010583
:20452000FFF7C4FC0028A7D045E70DF13300302300F8013C0426013863E645F4C855C9E591
:2045400045F41065C6E545F48065C3E545F48855C0E545F4E065BDE545F48135BAE545F49A
:204560000075B7E545F40245B4E545F42455B1E545F4A065AEE545F4C135ABE545F4B24509
:20458000A8E545F4A135A5E545F48445A2E545F442459FE545F4E1359CE545F4C06599E57C
:2045A0003946DBF800303246DBF80400984700287FF401AF2146584609EB0605FFF776FC94
:2045C00000283FF459AFF6E698F8023045F0200508F10208FAE4019998F802300A460432BD
:2045E0000E68019208F10208EAE4602B00F0C680802B40F0EF80019B073323F0070303F1EF
:2046000008020192D3E9002360E6602B00F0AB80802B2AD1049B0693019B073323F0070361
:2046200003F108020192D3E90023CDE9022356E6934200F0CD8041F608020026934207EBB3
:2046400006017FF473AEDDE9022313433FF46EAE744B15F4804F744A18BF1A4602230293E9
:2046600067E601230293714A76E605F4C053B3F5805F00F0D080B3F5C05F40F0AE80002302
:204680000022CDE9022300230693694B15F4804FDDE90201674E024618BF1E460B4613432D
:2046A00000F0B5800DF1360307939A4602460B46110941EA03711F0902F00F003B460A46D8
:2046C000315C0AF8011D52EA0301F1D1079BCAEB030715E6DDE9026732463B46134300F061
:2046E00096800DF136039A460793304639460A2200230BF043F83032304639460AF8012DF2
:2047000000230A220BF03AF806460F4656EA0703EBD1079BCAEB0307F2E556B1B1464A46B0
:20472000DBF800304449DBF80400984700287FF442AE3A46029F51462F44DBF80030DBF8A7
:2047400004003D46984700287FF435AE049B3544002B3FF491AE21465846FFF7A7FB0028FB
:204760003FF48AAE27E6019A136804321946049B01920022CDE902120693B0E501990B46DF
:204780000A6804330193002A4FEAE27373F10001BFF6A1AD524263EB4303CDE90223012395
:2047A00006939CE5DFF898A006271DE6214658460592FFF77BFB059A00283FF4DCADFAE536
:2047C000002E08BF0126002302931A46B919B0E50126F8E7002200237DE5002306931F4670
:2047E00000220023CDE902230DF1360A88E50123124A0293B0E5049A019906920A8858E6A4
:204800000199B1F900200431D31701915EE500270DF1360A74E500230022CDE9022300233F
:20482000069352E6A4010100A8010100AC0101007C010100900101006C010100B001010079
:20484000B801010010B50446006830B1002100F063FA54F8040F0028F8D110BDF0B503888B
:2048600083B005465BB14A2B04D188291BD0012003B0F0BD00230380032003B0F0BD1948BD
:2048800000F0EAFB044630B1A168201D00F058F92468002CF8D1144B01221A704A23012076
:2048A0002B8003B0F0BD0F48019200F0D5FB04460028F3D0019A031D9A4205D02468231DD6
:2048C000002CEBD09A42F9D12146064800F022FC064E6269A369376832600BB1E069984748
:2048E0003760DBE7700C0020DC2B0020800C002010B5064B002406481C7000F0A9FB2146E1
:20490000BDE81040034800F007BA00BFDC2B0020700C0020F804002070B504460D4D0E48E9
:204920002E680078A261E361666130B9A1600B482146BDE8704000F09BBB094B201D2B6000
:2049400000F0FEF82E602146BDE87040034800F08FBB00BF800C0020DC2B0020700C002074
:20496000F804002070B5094B04461B783BB1084D084B2E6804302B6000F0ECF82E60214613
:20498000BDE87040044800F073BB00BFDC2B0020800C0020F8040020700C002010B50A4BF4
:2049A00004461B783BB9C36003612146BDE81040064800F0AFBB043000F0F2F82146BDE881
:2049C0001040024800F0A6BBDC2B0020700C0020704700BF10B50E4C2368B3B1FDF7C4FFEE
:2049E000226892E80A0092680B44191A4AB114685368926823441B1A994228BF1946002A1A
:204A0000F5D1044B0144196010BD024A136010BD740C0020780C00202DE9F0410388054609
:204A20007BB1592B08D1872912D0822920D059232B800120BDE8F081002303800320BDE8F4
:204A4000F081254A0120136059232B80BDE8F081214F39680029EAD0CB689A4203D024E0CB
:204A6000CB689A4220D189680029F9D13960DEE7194F4FF000083C68002CD8D0002604E0C3
:204A8000A3682646002BD2D01C46204600F06CFA0028F5D022468821E06800F0EDF978B16F
:204AA0000E4800F015FAEBE739608B68002BBED0D86882420BBF9B6819468B609B68F5E790
:204AC000E060A3682EB1B360C4F80880FFF782FFD1E73B60F8E700BF740C00200805002020
:204AE00010B50446104800F0F3F91049E3680A684BB142B194420FD0134601E09C420BD0C6
:204B00009B68002BFAD10A4BA2601B680C60E360BDE81040FFF75EBF054B1B68E360BDE850
:204B20001040FFF757BF00BF08050020740C0020800C0020014800F0CBB900BF0805002038
:204B400010B5044600F0FCF92046BDE81040FFF7C7BF00BF10B5044600F0FAF92046BDE8CE
:204B60001040FFF7BDBF00BF10B5044600F0F6F92046BDE81040FFF7B3BF00BFC068B0FA72
:204B800080F04009704700BF05C81044704700BF024B1868003018BF01207047740C002003
:204BA00010B50F4B04461A68824213D072B19368984208BF134605D043B19A68944201D0D9
:204BC0001346F9E7A2689A60FFF704FF0023A360E36010BD82681A60FFF7FCFEF6E700BF79
:204BE000740C00202DE9F843DFF8A480274DD8F800702E68874247D077B33B4601E0002BE8
:204C00003BD01B689842FAD133B3837B8946044623B3002383736FB1BC424FF0870106D0BA
:204C2000BB7BDB0703D52246384600F033F83F68002FF1D1A3683BB14C4505D02C600022E0
:204C4000832104F10C009847D8F80000844208D12368C8F800302E60BDE8F88338468442F4
:204C6000F6D00028F7D003689C4208D0002BF2D01A68944204D01346F8E7BDE8F8830346A4
:204C800022681A602E60E7E73B46BDE7800C0020840C002070B586687EB104460A48022330
:204CA0000460A37304F10C000D46B0470238012804D9832D02D00123A37370BD2146204639
:204CC000BDE87040FFF78EBF800C002070B50C4A0C4B146800251D7084B1012601E02468C7
:204CE00064B1E37B002BFAD0A673E573204600228221FFF7CFFF2468002CF2D170BD00BF85
:204D0000840C0020E02B0020024B1878421C1A70704700BFE12B002070B50F4D2C68844276
:204D200006D034B1234600E01BB11B689842FBD170BD0028FCD00346084E04600A4634686A
:204D40000120002198739981184681212B60FFF7A1FF346070BD00BF840C0020800C0020EF
:204D600070B407480749084A0023084D084C8A2603700B6013602E70237070BC704700BF7E
:204D8000DF2B0020840C0020800C0020E12B0020DD2B00202DE9F8432A4D2B780BB1FFF71C
:204DA00095FF294E3378FBB1DFF8B0E027489EF80020013B02EB420189004718541C415CA4
:204DC0007A68B868DFF89880214FDBB204F01F0433708EF800403A6088F8001088B1812958
:204DE00006D0847BE40705D428781844BDE8F88301238373FFF74EFF337828781844BDE855
:204E0000F883144A144C12682260002AECD0A14607E02068837BDB070CD403682360002B48
:204E2000EAD02B78002BF4D0FFF750FF2068837BDB07F2D53A6898F80010FFF72BFFD9F87F
:204E40000000EAE7E02B0020DF2B00208C0C0020880C0020840C00207C0C0020DD2B002040
:204E6000DE2B0020024A034B10781B7818447047DF2B0020E02B0020F0B40C4D2C78202CFF
:204E800011D00B4B0B4E1B78671C234403F01F0303EB43039B00F418A06062602F70F1546F
:204EA0000020F0BC70470120F0BC7047DF2B0020DD2B00208C0C002038B5837B034CDB07C5
:204EC000256801D5FFF7E6FE256038BD800C002038B1837B013B012B03D8024A0123137052
:204EE000C3737047E02B0020FDF768BD38B5094C049D226822B180E82A002060002038BD1A
:204F0000024680E82A0008462260FDF759FD002038BD00BF0C0E002010B5084C206858B1E5
:204F200000224368816822609847236823B1BDE810401868FDF744BD10BD00BF0C0E0020CB
:204F400010B541600446FDF70FFD206010BD00BF90E80C0013440360704700BF10B50446D2
:204F6000FDF702FD206010BD10B50446FDF7FCFC23686268C3F101031844904294BF002048
:204F8000012010BDF8B504880546672C0BD0792C04D0CCB1002303800320F8BD85291AD124
:204FA0001D4C002323601C4C264604E00A2814D023687E2B2ADD194800F0E6F8431CF5D185
:204FC00067232B800120F8BDFFF79EFE144A124B10701C60E7E70120F8BD0F4C114F236893
:204FE0000F4A581C0026117820603A463046FE54FFF742FF0C4B324618688521FFF73CFF10
:205000000028CED179232B800120F8BD05495A1CC8543260CFE700BF180F0020900E0020C0
:205020004B360020980E0020800C002008B505490548802200F0A0F8BDE808400021034882
:20504000FFF76ABE100E0020900E00201805002000230360704700BF00687047006808B9B5
:2050600004E018460368002BFBD17047704700BF10B404685CB1A14223D023680BB906E017
:20508000134699420FD01A681C46002AF8D100230B6002680AB910E01A461368002BFBD1A9
:2050A000116010BC70475CB10A68226000221A6000230B600268002AEFD1016010BC704799
:2050C0000C46226823460260F0E700BF30B4056865B1A94219D02B682C460BB906E0134650
:2050E000994207D01A681C46002AF8D10D60016030BC704744B10A68226000221A600568C4
:205100000D60016030BC70470D462A682B460260F3E700BF10B404685CB18C4212D0236855
:205120000BB906E01346994205D01A681C46002AF8D110BC70472CB11A68226000221A60E5
:2051400010BC70470A680B460260F7E703682BB100201B680130002BFBD1704718467047EB
:2051600000B10068704700BF0AF0F8BD08B50AF0FFFD80B208BD00BF0023013A0160027156
:2051800043718371704700BF0346807959791A79091A114207D010B4411C1C680A40205C92
:2051A0009A7110BC70474FF0FF30704708B5064803F0D2FC054BAA220120002118705970C1
:2051C0009A70DA7008BD00BFE55A0000340F002010B5124C0220A17907F052F9A379112B5C
:2051E00009D0062B07D03A2B0FD0BDE810400021012007F045B9218D638D01209942A8BF5D
:205200001946BDE8104007F03BB9218D012049BA89B2BDE8104007F033B900BF9C2D0020C2
:2052200030B414780B7A84F00204A34215D00B891BB94B89B3F57F4F30D01F4D01222C6860
:2052400001F10803824004F10801296003CBD3B220606160184630BC70474C7A53789C4204
:20526000E5D18C7A93789C42E1D1CC7AD3789C42DDD10C7B13799C42D9D14C7B53799C42AE
:20528000D5D18C7B93799C42D1D1D379CA7B9A42CDD1032101FA00F3DBB2DBE78B89FE2B2C
:2052A000CBD1054CCB892268022122F8023B01FA00F32260DBB2CDE7240F002010B5084C8C
:2052C0002378012B01D0002010BD01460822A01C0AF0EAFB00280CBF2046002010BD00BF38
:2052E000340F002008B50146102007F0D7F8044B00219B6803489847BDE80840FEF7F4B925
:20530000E40201000953000010B50C461146204601F008F8044B1B6813B19B6820469847A7
:20532000024B1C6010BD00BF30130020440F00202DE9F04715090F2D06469A4602F00F046A
:205340002CD00F2C36D0A046A9466719D5BB0F2F03DD5CB9E5B9BDE8F087C7F1100206EB83
:20536000090000210AF0ACFC002CF3D0DFF87490C8F11000D9F800703044394622460AF038
:20538000C5FB022C20D03C44C9F80040BDE8F08751463046BDE8F04701F0E0BC0F2C4FF0A2
:2053A000100918D04A464D46A046A71830460AF0ADFBCCE74FF01008A94605F1100744467C
:2053C000002DD3D02A46F1E70A2DDCD8FF22FE23F2723373D7E74D46C8464C4620272A46D6
:2053E000E4E700BF240F00202DE9F04FDFF81CB3B44D8BB000248BF800402C7006F072FFAF
:20540000B14E3060042007F043F8B04B02B2B0481A60FFF7A9FD48BBDFF8C48233681A789D
:205420005C7802F0F801C02944EA022457D0E02923D000231F461C46A64AA8F80030138010
:205440000193029395F800E0BEF1050F00F0C280326812F80E3003F0E001602900F06E81A3
:20546000412B00F003810BB0BDE8F08F994BDFF870821C80A8F80040D0E72A7893F80290CE
:20548000D97805322A701F79B8F800A041EA092906F03CFF2B785044C01AC4F30A04A042BC
:2054A000B8F80020B4BF002301230293002A00F0418100230193002CD5D0864B1B88A34210
:2054C000D1D1854B1B884B45CDD10F2006F0F2FF0146824806F03AFC0028B3D1C3E72A783E
:2054E00093F80290D978B8F80000131DC4F30A042B7041EA09297A4F002840F009810746A9
:20550000631E012202909BB20192B3F57A7F99D2019B002BA7D0704B6E4A4FF480616C48E0
:20552000A3F800901480FFF70BFD0F2006F0C2FF01466A4806F004FC0123019382E7194659
:20554000684A0F20D25C0791069206F0B3FF069A034607996448FFF7EBFE039800F00803BA
:2055600003F0FF0100F00302002B00F0848141070ED45E49531E0988012BADF8241040F219
:205580008D825B4900238A5C5A4809A9FFF7D0FE9BF8002002F128038BF80030059B002BE8
:2055A00040F08A81DAF800303268DFF818A19B1A2B70002C00F01282A4F128031A1289F817
:2055C000053089F8042099F806304B4A112B01D19388938506F09AFE2B783A4D83423FF6A2
:2055E00042AF06F093FEFF002B789BF80050BFB2C3EB00092F44414907EB0902B2F57A7FEC
:20560000C1F800903FF62FAF31683B48194438444A460AF07BFA002C00F0AE81019B23B17F
:20562000B8F800301D44A8F80050029B002B00F00D82284EA8F800403588AC427FF413AFBC
:205640002F4C2A462C492F480AF060FA2E49226800230D803380A8F8003022B1FFF7B8FD6D
:2056600023685B68984703F09DFAFCE60EF1010C5FFA8CFC94440CF12003DFF87CA0039323
:20568000D146DCF80C30DCF80000DCF80410DCF808200CF1100CA9E80F00039B0AF1100ABF
:2056A0009C45EDD19BF80030DCF80000DCF804100EF1290E2833AAE8030085F800E08BF8C6
:2056C000003087E7E32B0020400F0020200F0020280F0020C02B0020BE2B00200C2C00207D
:2056E000C42B002010020100500F0020F001010000020100600F0020480F00201C0F0020C3
:20570000301300209C2D0020882D0020E22B00200F2006F0CFFE0146C04806F017FB0028CA
:205720006ED03F88002F00F0C9810027012302970193C0E6631E01929BB2E6E602EB0E01B4
:205740004978DFF800A303910EF1020E49B272440029CAF80020B8BF01320491B8BFCAF837
:205760000020D90656D503F0080202F0FF00002A40F04381DAF80020DFF8CC9211461278EB
:20578000C2F3830242F0600289F8002011F801EBA9F802004FEA9E0202F0300242EA8E1239
:2057A000CAF8001089F8012003F0040202F0FF0105913AB9DAF8002012F8011B89F8061052
:2057C000CAF8002013F003034CD0954AD35C89F80730039A5006C2F3011340F1D780049A1A
:2057E000002AC0F215810021002B3FF4A8AE8D4A1078012800F043818B4B00221A60E9E6E5
:205800008A4A631E108001223880029007469BB201927AE61A0700F1C680DAF80020DFF888
:205820002892104632F8011F9278A9F8011089F8032010F804CB99F801204FEA9C0102F05D
:205840000F0E01F0300242EA8C1201F00F0141F0600142EA0E02CAF8000089F8001089F89B
:205860000120A1E7DAF8003013F8012B89F80720CAF80030ADE7039B5B0740F1F380049BD5
:20588000002BC0F20481674B1B78012BB4D1654B5B788B42B0D16649634B8A5C10200392D7
:2058A000604A1A6006F006FE5E490346039A02316048FFF73DFD6BE6DAF80030197801F05D
:2058C000F801F0297FF470AE112189F80610187800F0F301F03900F00400C0B203293FF6F8
:2058E00079AEDFE801F03D332202597802330909A1F5756189B2090241F0F001A9F8281070
:2059000013F8011C01F00F01A1F5756189B2090241F0F001A9F82A10CAF80030002800F0A5
:20592000C68030328BF800203EE659780433A1F5805189B2090241F0F001A9F8281033F81D
:20594000021CCAF80030A9F82A10E7E7B3F801100433A9F8281013F8011CA1F58051D5E777
:20596000B3F801100533A9F8281033F8021CCAF80030A9F82A10D1E74D442C4EB8F8004091
:20598000ADB23580002C7FF458AE59E62A4A0F20D25C069206F08EFD069A0346274928485C
:2059A000FFF7C6FCD9E5DAF80010DFF89C900846602289F8002010F8012B03314FEA920EDA
:2059C0000EF0300E02F00F024EEA020289F801200288CAF80010A9F80220E5E606F096FC38
:2059E0009AF800209BF80030801A0344283B1A1289F8053089F80420E5E5DFF84C900022C8
:205A0000602189F8001089F80120A9F80220CBE631682A780A4491780909E5E60C2C002097
:205A2000F4010100340F0020300F0020C02B002010020100600F0020F8010100FC01010009
:205A4000500F0020240F0020480F0020B8F800401F4E4C44A4B2A8F800403588002C7FF47E
:205A6000ECADEDE51B4B10209A5C039206F022FD039A034618491948FFF75AFC88E550785C
:205A800088427FF4B9AE1648911C026058E531682B780B44997801F00F01F4E6DAF800303F
:205AA00013F8011B8DF82510CAF8003069E533F8021BA9F82E10CAF8003032E7631EB3F56A
:205AC0007A7F03D3012301930297BBE4029722E5C02B0020F8010100FC010100600F0020D5
:205AE000300F00202DE9F04FB34AB44F002385B03B701370044606F03FFC06F0F3FBB04D10
:205B000004212860092006F0BBFCAE4B1B680BB1FFF75EFB02A80090002C00F0A582214697
:205B200006F00EF9A84B1B883E2B34D9A24BD5F800A093F80090A54E002309F102090AF8CA
:205B40000930A3480AF102033360FFF7B7FB002800F010810AF1030333604FF080089D4CF9
:205B600062782178130943EA0113DBB2980840EA83135BB210075FFA83FE63D16088002826
:205B800060D1080740F0FE8012F0F00F40F0FA804FF0780B65E08F4C874BA44693F80080C3
:205BA0002B6808F10106F6B241221E441A7004F12009E646BEE80F00CE4530607160B260D6
:205BC000F3600CF1100C06F11006F2D1BCE80300306071603B78784A08F12908283382F80D
:205BE00000803B700099102006F058FC7A4B764E1B689847794B00285B69ACBFC0F17D0A29
:205C00004FF0680A98476C4B3F7893F80080B6F80090C0EB0A0AC8EB0A03C7EB09029A4225
:205C2000DFF894B140F3B58006F062FC6C4B0138A3FB0939B0EB991F00F3DC80002005B045
:205C4000BDE8F08F090703D112F0F00F00F08480326820681346106003F804EB33604FF0A0
:205C6000600BA379112B6AD1E3794BF0040B402B6CD0FF2B00F01882012B6AD0326802F82B
:205C8000013B32602389534A3BB953892BB993891BB9D389002B00F026825248FFF70EFB91
:205CA000514B1860002800F0818141781AF809304E4A43EA01130AF809304A490420FFF7F1
:205CC000AFFA60F03F005FFA80F8237E4149FF2B00F0988101F118000191FFF7EFFA424A56
:205CE00001991060002800F0C3811AF809204378183113430AF80930009A0020FFF790FA34
:205D000048F004085FFA88F848EA0000D6F800E05FFA80F9A3792822112B3A702D4900F002
:205D20001481254A2B6812782348C3EB0E0E991803F802B080F800E081F8019052E732687A
:205D400002F8013BE3793260402B92D14BF0020B98E74BF0010B95E7316823F03F03134383
:205D6000234A0B701288CB1CA1F8012033604FF0680B76E71B48FFF7A1FA00287FF4EAAE37
:205D80008046ECE633684FF0700B03F801EB336067E72868E119404409F0B8FE3088404455
:205DA000C01B80B206F098FA0098FFF79BFA012005B0BDE8F08F00BFE32B0020E22B002017
:205DC000400F002030130020882D0020240F0020B42D00209C2D0020A0020100E402010055
:205DE00089888888A42D0020300F0020942D00209E2D00202F689BF8008039464246381D60
:205E000009F0FAFE3388DFF82CE31B0A08F1040863F03F03BE49BEF800205FFA88F93B70CF
:205E2000B6F800C00978C9EB0A0323F00703100AFA70DFF80483013287F801C0AEF800207A
:205E4000B8701A46214407EB0900C8F8003001938BF8009009F05AFE019B09EB030080B2AD
:205E600006F03AFA06F04AFB074600283FF4E6AE0098FFF737FADFF8C492384606F08CFB9A
:205E8000384606F073FBD9F80030012B3FF4D6AE043B012B7FF6D2AE33889E4A1B0A11689B
:205EA0009B4A63F01F0310780B70D8F80020AAF1050A37882AF00703861805224F70C8F8C4
:205EC0000030B6B28BF80020C24634E0D8F80070914BBA42B8BF174693F800B02B68B8BF3A
:205EE000CAF8002003EB0B003A4683F804E009F00DFE0BEB070080B206F0EEF906F0FEFAEA
:205F0000074600283FF49AAE0098FFF7EBF9384606F042FB384606F029FBD8F80030D9F805
:205F200000201E44012AA2F10403B6B23FF486AE012B7FF683AE794BA1191B884FEAD60E3B
:205F40009E42A3EB0602C1D331E74FF2B002088D030A43EA00239BB223F00F0080B29042C7
:205F600000F0A580498D0A0A42EA012292B202F47F42B2F5704F00F02F8103F47F43B3F571
:205F8000704F00F0F280664BF0228EF8002018680EF10503CEF801009E46624B30221B88A3
:205FA0003A702EF8023BC6F800E0BAE648F2FE0322895D499A420FD14B8B6BB98B8B5BB92A
:205FC000CB8B4BB90831594A0420FFF729F948EA00005FFA80F878E6D6F800C0DFF860E148
:205FE0000CF110033360BEE80F00CCF80410CCF80000CCF80820CCF80C30237E4A49FF2B63
:206000007FF468AE4B7E48F00809022B5FFA89F94A8B00F0B880002A33D18A8B8ABBE18BEC
:20602000414A71BB118C31B9518C21B992F82410002900F0DF80218C3B4A11BB92F822107B
:20604000F9B9306848F00908014601F8013B52F8233F00F1060EC0F8013013795FFA88F931
:206060000B71C6F800E055E6314905F069FE59E548F2FE030A8B9A4202D14B8B002B63D004
:20608000C146D6F80080DFF8BCC008F1100EBCE80F00C6F800E0C8F80000C8F80410C8F89C
:2060A0000820C8F80C3035E64BF0030BEAE5B1F82AC04FEA1C2242EA0C2292B222F00F0CB4
:2060C00084457FF454AFF3238EF800300A8D4B8D120A1B0A03EB021303F5AA638EF8013046
:2060E0000EF1020358E7138A002B7FF4D6AD538A002B7FF4D2AD938A002B7FF4CEADD38A12
:20610000002B7FF4CAAD48F040085FFA88F8DCE5E22B0020400F0020E32B0020882D0020B1
:20612000C42D0020CA2D00209C2D0020942D002074020100C22B00201C0F0020440F00202B
:20614000A42D0020B42D00208B8B002B98D1CB8B002B95D11831009AFFF762F848EA000057
:206160005FFA80F9D6F800E0D4E5F2238EF80030238D2A4A1B0A8EF8013012880EF104037B
:20618000AEF8022008E7002A7FF47BAF8A8B002A7FF477AFCA8B002A7FF441AF0A8C002A07
:2061A0007FF43DAF4A8C002A7FF439AF8A8C002A7FF435AF91F82620002A7FF430AFD6F875
:2061C00000E091F8273048F00B080EF8013B5FFA88F9C6F800E09DE5F122114B8EF8002063
:2061E0001A880EF10403AEF80120628D120A8EF80320D1E6306848F00A08014601F8013B67
:2062000032F825CF00F1040E93785FFA88F9A0F801C0C6F800E08B707CE500BFC62D002053
:20622000C42D002050B110B5044605F003F8044B2146BDE81040186805F040BF704700BFB8
:2062400028050020024B0349186805F0AFBD00BF28050020256200002DE9F041124C0646F3
:20626000206890461F4605F02DFE0446C0B10546F36830687168B2680FC50021284684F870
:20628000218084F8227007F0ADFA04F11800002107F0A8FA002384F82030204604F0CAFFD8
:2062A0002046BDE8F08100BF28050020024B0146186805F067BF00BF2805002070B50546AB
:2062C0000C4E306805F0C6FD8DB1044630B90EE02146306805F080FD044640B11022294668
:2062E000204609F0E1FB0028F2D1204670BD002070BD00BF28050020024B0146186805F083
:20630000BBBE00BF2805002008B5FFF7D7FF30B1034B01461868BDE8084005F033BF08BDE0
:206320002805002070B5054610200E4606F0C2F80649044605F00AFD00B170BD3246294612
:206340002046BDE8704004F03BBF00BF740201002DE9F843454D286805F07CFD18B3044668
:20636000434FDFF81091DFF8108194F82230042B12D8DFE803F0311A1151030094F820306E
:20638000022B5AD9204600F02FFA10B1037F002B65D02046FFF746FF2146286805F01CFDD5
:2063A00004460028E1D1BDE8F88304F11006304607F020FA0028EFD0204600F015FA002893
:2063C00050D0032384F822303046052107F00AFA002384F82030DFE794F82030022BD8D8A4
:2063E00004F11806304607F005FA0028D4D039880029D1D12246084694F82030013384F884
:20640000203000F085FFD9F810303046A8FB0331890907F0E7F9BFE704F1100007F0EAF96C
:206420000028B9D00423002184F8223084F8201004F1180007F0D6F9AEE704F118063046F8
:2064400007F0D8F90028A7D038880028A4D194F820302246013384F820302146D1E700F025
:206460009FF996E7022384F8223095E728050020882D00201C2C0020D34D62102DE9F8432B
:2064800005460F480F469046FEF7E6FDB0B10446DFF834900BE0D9F80030424639462846B0
:2064A0006668B0472046FEF75BFE044630B1012DF1D80448FEF74AFE0346EEE7BDE8F8837A
:2064C000041B00209C1600209416002008B50A4807F0A0F90948FEF7BBFD0949094805F0AC
:2064E00065FC094807F096F90848FEF7B1FDBDE808400748FEF7ACBD5805002040170020E3
:2065000099660000480500203C0500209C160020041B002040B108B54168044805F032FED5
:20652000BDE80840FFF7E8BE704700BF480500200148FEF791BD00BF4017002008B1FEF77F
:206540000FBE70472DE9F04107461B48FEF784FD58B300260446B04694F8245004F10801DB
:20656000B5424FEAD50207D3384609F09DFA18B9802D1FD02E46A0462046FEF7F1FD0446D2
:206580000028E9D1B8F1000F0FD00B48FEF764FD804507D041460848FEF7BCFD41460648E3
:2065A000FEF794FD4046BDE8F0814FF000084046BDE8F081A046E8E740170020002840D072
:2065C0004368002B3DD070B5054601462048FEF7A1FD6B685868FEF73FFD044628B929E02E
:2065E0002046FEF7BDFD044620B363689D42F7D105F108066B6821465868FEF78BFD6B68A9
:206600005868FEF729FDE8B12946124807F032F92146114807F02EF9104A28461368013BBE
:206620001360FFF777FF3146BDE8704002460320FFF724BF05F10806304602F0B7FC002428
:20664000D8E770476B680648596805F037FDDBE740170020580500206405002094160020B0
:2066600048050020A8B143689BB110B504461846FEF7F2FC38B14068FFF7A0FF6068FEF72A
:20668000EBFC0028F7D12146BDE81040014805F015BD704748050020FFF7E4BF2DE9F047AD
:2066A0000546104690468946FFF72EFE002862D007462846FFF746FF044660B1FFF72AFFA8
:2066C00030B101461022404609F0EEF900283DD02046FFF773FFDFF8C4A0DAF80030142B7B
:2066E00043D03946294805F0C7FC064688B3284807F0A2F8044600283DD001462548FEF72F
:20670000E5FC254807F098F80746B8B3446001467068FEF7ADFC666028686968AA68EB68FF
:20672000DAF8007004F108060FC6002384F82490424629460137A3610220E3612362CAF80C
:206740000070FFF79BFE2046BDE8F0872046BDE8F08739460D4805F0B5FB064658B1002345
:2067600080E84800FEF774FCC1E70A48FEF776FCFFF724FFB5E70020BDE8F08721460448FF
:2067800007F078F83846BDE8F08700BF480500205805002040170020640500209416002085
:2067A00010B504460E48FEF757FC40B1A04202D106E0844204D0FEF7D3FC0028F9D110BD83
:2067C00021460748FEF7A6FC2146064807F052F8221D1146BDE810400120FFF74FBE00BF08
:2067E0009C1600203C05002038B505460A48FEF733FC044628B90DE02046FEF7B1FC04464E
:2068000040B110222946201D09F04EF90028F3D1204638BD002038BD9C160020F8B50F4639
:206820000546FFF7E1FF0646B8B128686968AA68EB68341D0FC447B9012333772A462946EB
:206840000020FFF71BFE3046F8BD394606F1140006F0C8FF00233377F0E7054806F0ECFFC5
:2068600006460028EFD001460248FEF72FFCDCE73C0500209C16002038B50B48FEF7ECFB22
:20688000044678B1251D2846FFF718FD10B190F822302BB92046FEF763FC04460028F1D15D
:2068A000284638BD0546FBE79C16002010B50E48FEF7D2FB68B10446237F04F1140013B9BF
:2068C00006F098FF30B92046FEF74AFC0446002CF2D110BD2046FFF763FF0348FEF7BCFBE6
:2068E0000446002CE8D1F4E79C1600202DE9F84302FB0105099F1646A8424FF000023A609F
:206900009DF820801CD2044699464FEAD80807E04246494609F0C8F878B13444AC4207D2F3
